:100000000EEF00F00000000000EF00F00000000024
:0A0010000000000000000000F3D71C
:10001C00156A166A956A836A9380818081B010D0C4
:10002C00000E161802E1000E151807E1FF0E836E84
:10003C00010E156E000E166E03D0836A156A166AD1
:10004C00340E0C6EF10E0D6E0D2EFED70C2EFCD751
:10005C000000000081B001D0FDD7820E0C6EDD0EC9
:10006C000D6E0D2EFED70C2EFCD700000000D6D73F
:02007C00FFD7AC
:020000040030CA
:0D000100220F0EFF0181FF0FC00FE00F4026
:00000001FF
