:100000000EEF00F00000000000EF00F00000000024
:0A0010000000000000000000F3D71C
:10001C00156A166A956A836A9380938293848180A9
:10002C008182818481B003D0156A166A0BD081B2AB
:10003C0003D0154A162A06D081B404D0010E155EE1
:10004C00000E165A340E0C6EF10E0D6E0D2EFED7E0
:10005C000C2EFCD70000000015C083FF060E0B6EA3
:10006C00130E0C6EAD0E0D6E0D2EFED70C2EFCD796
:0C007C000B2EFAD700000000D5D7FFD7EC
:020000040030CA
:0D000100220F0EFF0181FF0FC00FE00F4026
:00000001FF
