:100000000EEF00F00000000000EF00F00000000024
:0A0010000000000000000000F3D71C
:10001C00956A836A936A816A800E836E030E0B6EF7
:10002C00080E0C6E770E0D6E0D2EFED70C2EFCD717
:10003C000B2EFAD7400E836E030E0B6E080E0C6E51
:10004C00770E0D6E0D2EFED70C2EFCD70B2EFAD77D
:10005C00200E836E030E0B6E080E0C6E770E0D6E5B
:10006C000D2EFED70C2EFCD70B2EFAD7100E836E4E
:10007C00030E0B6E080E0C6E770E0D6E0D2EFED74A
:10008C000C2EFCD70B2EFAD7080E836E030E0B6EBC
:10009C00080E0C6E770E0D6E0D2EFED70C2EFCD7A7
:1000AC000B2EFAD7040E836E030E0B6E080E0C6E1D
:1000BC00770E0D6E0D2EFED70C2EFCD70B2EFAD70D
:1000CC00020E836E030E0B6E080E0C6E770E0D6E09
:1000DC000D2EFED70C2EFCD70B2EFAD7010E836EED
:1000EC00030E0B6E080E0C6E770E0D6E0D2EFED7DA
:1000FC000C2EFCD70B2EFAD7836A010E816E030EE1
:10010C000B6E080E0C6E770E0D6E0D2EFED70C2E90
:10011C00FCD70B2EFAD7020E816E030E0B6E080E57
:10012C000C6E770E0D6E0D2EFED70C2EFCD70B2EF3
:10013C00FAD7040E816E030E0B6E080E0C6E770E42
:10014C000D6E0D2EFED70C2EFCD70B2EFAD7080EEB
:10015C00816E030E0B6E080E0C6E770E0D6E0D2E4F
:10016C00FED70C2EFCD70B2EFAD7100E816E030E79
:10017C000B6E080E0C6E770E0D6E0D2EFED70C2E20
:10018C00FCD70B2EFAD7200E816E030E0B6E080EC9
:10019C000C6E770E0D6E0D2EFED70C2EFCD70B2E83
:1001AC00FAD7400E816E030E0B6E080E0C6E770E96
:1001BC000D6E0D2EFED70C2EFCD70B2EFAD7800E03
:1001CC00816E030E0B6E080E0C6E770E0D6E0D2EDF
:1001DC00FED70C2EFCD70B2EFAD7816A1DD7FFD772
:020000040030CA
:0D000100220F0EFF0181FF0FC00FE00F4026
:00000001FF
